{
  "address": "0xFfFC34216aCa5Ed8597AE3B1EEd884C19cfbD9FB",
  "abi": [
    {
      "anonymous": false,
      "inputs": [
        {
          "indexed": true,
          "internalType": "uint256",
          "name": "raffleId",
          "type": "uint256"
        },
        {
          "indexed": true,
          "internalType": "address",
          "name": "participant",
          "type": "address"
        },
        {
          "indexed": false,
          "internalType": "uint64",
          "name": "createdAt",
          "type": "uint64"
        }
      ],
      "name": "EntrySubmitted",
      "type": "event"
    },
    {
      "anonymous": false,
      "inputs": [
        {
          "indexed": true,
          "internalType": "uint256",
          "name": "raffleId",
          "type": "uint256"
        },
        {
          "indexed": true,
          "internalType": "address",
          "name": "creator",
          "type": "address"
        },
        {
          "indexed": false,
          "internalType": "string",
          "name": "title",
          "type": "string"
        },
        {
          "indexed": false,
          "internalType": "uint64",
          "name": "createdAt",
          "type": "uint64"
        }
      ],
      "name": "RaffleCreated",
      "type": "event"
    },
    {
      "anonymous": false,
      "inputs": [
        {
          "indexed": true,
          "internalType": "uint256",
          "name": "raffleId",
          "type": "uint256"
        },
        {
          "indexed": true,
          "internalType": "address",
          "name": "winner",
          "type": "address"
        },
        {
          "indexed": false,
          "internalType": "uint64",
          "name": "drawnAt",
          "type": "uint64"
        }
      ],
      "name": "RaffleDrawn",
      "type": "event"
    },
    {
      "inputs": [
        {
          "internalType": "string",
          "name": "title",
          "type": "string"
        },
        {
          "internalType": "string",
          "name": "description",
          "type": "string"
        },
        {
          "internalType": "uint256",
          "name": "prizeAmount",
          "type": "uint256"
        },
        {
          "internalType": "uint256",
          "name": "entryFee",
          "type": "uint256"
        },
        {
          "internalType": "uint32",
          "name": "maxEntries",
          "type": "uint32"
        },
        {
          "internalType": "uint32",
          "name": "durationHours",
          "type": "uint32"
        }
      ],
      "name": "createRaffle",
      "outputs": [],
      "stateMutability": "nonpayable",
      "type": "function"
    },
    {
      "inputs": [
        {
          "internalType": "uint256",
          "name": "raffleId",
          "type": "uint256"
        }
      ],
      "name": "drawWinner",
      "outputs": [],
      "stateMutability": "nonpayable",
      "type": "function"
    },
    {
      "inputs": [
        {
          "internalType": "uint256",
          "name": "raffleId",
          "type": "uint256"
        },
        {
          "internalType": "externalEuint32",
          "name": "encAmount",
          "type": "bytes32"
        },
        {
          "internalType": "bytes",
          "name": "inputProof",
          "type": "bytes"
        }
      ],
      "name": "enterRaffle",
      "outputs": [],
      "stateMutability": "nonpayable",
      "type": "function"
    },
    {
      "inputs": [
        {
          "internalType": "uint256",
          "name": "raffleId",
          "type": "uint256"
        },
        {
          "internalType": "uint256",
          "name": "entryIndex",
          "type": "uint256"
        }
      ],
      "name": "getEntry",
      "outputs": [
        {
          "internalType": "euint32",
          "name": "encAmount",
          "type": "bytes32"
        },
        {
          "internalType": "address",
          "name": "participant",
          "type": "address"
        },
        {
          "internalType": "uint64",
          "name": "createdAt",
          "type": "uint64"
        }
      ],
      "stateMutability": "view",
      "type": "function"
    },
    {
      "inputs": [
        {
          "internalType": "uint256",
          "name": "raffleId",
          "type": "uint256"
        }
      ],
      "name": "getEntryCount",
      "outputs": [
        {
          "internalType": "uint256",
          "name": "count",
          "type": "uint256"
        }
      ],
      "stateMutability": "view",
      "type": "function"
    },
    {
      "inputs": [
        {
          "internalType": "uint256",
          "name": "raffleId",
          "type": "uint256"
        }
      ],
      "name": "getEntryFee",
      "outputs": [
        {
          "internalType": "uint256",
          "name": "entryFee",
          "type": "uint256"
        }
      ],
      "stateMutability": "view",
      "type": "function"
    },
    {
      "inputs": [
        {
          "internalType": "uint256",
          "name": "raffleId",
          "type": "uint256"
        }
      ],
      "name": "getPrizeAmount",
      "outputs": [
        {
          "internalType": "uint256",
          "name": "prizeAmount",
          "type": "uint256"
        }
      ],
      "stateMutability": "view",
      "type": "function"
    },
    {
      "inputs": [],
      "name": "getRaffleCount",
      "outputs": [
        {
          "internalType": "uint256",
          "name": "count",
          "type": "uint256"
        }
      ],
      "stateMutability": "view",
      "type": "function"
    },
    {
      "inputs": [
        {
          "internalType": "uint256",
          "name": "raffleId",
          "type": "uint256"
        }
      ],
      "name": "getRaffleMeta",
      "outputs": [
        {
          "internalType": "address",
          "name": "creator",
          "type": "address"
        },
        {
          "internalType": "string",
          "name": "title",
          "type": "string"
        },
        {
          "internalType": "string",
          "name": "description",
          "type": "string"
        },
        {
          "internalType": "uint256",
          "name": "prizeAmount",
          "type": "uint256"
        },
        {
          "internalType": "uint256",
          "name": "entryFee",
          "type": "uint256"
        },
        {
          "internalType": "uint32",
          "name": "maxEntries",
          "type": "uint32"
        },
        {
          "internalType": "uint32",
          "name": "currentEntries",
          "type": "uint32"
        },
        {
          "internalType": "uint64",
          "name": "expireAt",
          "type": "uint64"
        },
        {
          "internalType": "bool",
          "name": "isActive",
          "type": "bool"
        },
        {
          "internalType": "bool",
          "name": "isDrawn",
          "type": "bool"
        },
        {
          "internalType": "address",
          "name": "winner",
          "type": "address"
        },
        {
          "internalType": "uint64",
          "name": "createdAt",
          "type": "uint64"
        }
      ],
      "stateMutability": "view",
      "type": "function"
    },
    {
      "inputs": [
        {
          "internalType": "uint256",
          "name": "raffleId",
          "type": "uint256"
        },
        {
          "internalType": "address",
          "name": "participant",
          "type": "address"
        }
      ],
      "name": "hasEntered",
      "outputs": [
        {
          "internalType": "bool",
          "name": "",
          "type": "bool"
        }
      ],
      "stateMutability": "view",
      "type": "function"
    },
    {
      "inputs": [],
      "name": "protocolId",
      "outputs": [
        {
          "internalType": "uint256",
          "name": "",
          "type": "uint256"
        }
      ],
      "stateMutability": "pure",
      "type": "function"
    }
  ],
  "transactionHash": "0x9b8ee1cc3b67b0f9d2892e636f1aee81eb68568619fc9463369143d1ac51b973",
  "args": [],
  "numDeployments": 1,
  "solcInputHash": "1bdebb1204df3ec2f32437a59cac530d",
  "bytecode": "0x608060405234610194575f6060610014610198565b8281528260208201528260408201520152731364cbbf2cdf5032c47d8226a6f6fbd2afcdacac6060610044610198565b73687820221192c5b662b25367f70076a37bc79b6c815273848b0066793bcc60346da1f49049357399b8d595602082015273a02cda4ca3a71d7c46997716f4283aa851c288126040820152015273687820221192c5b662b25367f70076a37bc79b6c60018060a01b03195f51602061179d5f395f51905f525416175f51602061179d5f395f51905f525573848b0066793bcc60346da1f49049357399b8d59560018060a01b03195f51602061175d5f395f51905f525416175f51602061175d5f395f51905f525573a02cda4ca3a71d7c46997716f4283aa851c2881260018060a01b03195f51602061177d5f395f51905f525416175f51602061177d5f395f51905f5255731364cbbf2cdf5032c47d8226a6f6fbd2afcdacac60018060a01b03195f51602061173d5f395f51905f525416175f51602061173d5f395f51905f525560405161157190816101cc8239f35b5f80fd5b60405190608082016001600160401b038111838210176101b757604052565b634e487b7160e01b5f52604160045260245ffdfe60806040526004361015610011575f80fd5b5f5f3560e01c8063073c74f3146111f95780631d8c6086146111dd57806360b2a56a14610f4a57806362a96ba214610e4b57806381f8f295146106ff5780638c4d6e0f146106c9578063984d3c96146106a357806398ba676d146105db578063a1f1de65146105a4578063da1f12ab146105885763db833a5d14610093575f80fd5b346104815760603660031901126104815760043560443567ffffffffffffffff8111610481576100c790369060040161127e565b6100d35f5484106112ac565b60056100de846112f8565b50019081546100f260ff8260801c16611344565b67ffffffffffffffff8160201c164210156105435763ffffffff8082169160601c1610156104fe57835f52600260205260405f206001600160a01b0333165f5260205260ff60405f2054166104b9576101b16101535f9460209336916114a3565b6001600160a01b037f9e7b61f58c47dc699ac88507c4f5bb9f121c03808c5676a8078fe583e464970154169060405195868094819363196d0b9b60e01b8352602435600484015233602484015260806044840152608483019061125a565b6004606483015203925af1918215610476575f92610485575b506001600160a01b037f9e7b61f58c47dc699ac88507c4f5bb9f121c03808c5676a8078fe583e46497005416803b1561048157604051630f8e573b60e21b815260048101849052336024820152905f908290604490829084905af1801561047657610461575b506040516060810181811067ffffffffffffffff82111761044d57604052602081016040820193338352815267ffffffffffffffff42168452848652600160205260408620805490680100000000000000008210156104395790610299916001820181556113b2565b92909261042557906001600160a01b03806002949351161673ffffffffffffffffffffffffffffffffffffffff198354161782555160018201550167ffffffffffffffff83511667ffffffffffffffff198254161790558284526002602052604084206001600160a01b0333165f5260205260405f20600160ff1982541617905563ffffffff815460601c1663ffffffff81146104115781546fffffffff0000000000000000000000001916600190910160601b63ffffffff60601b1617905581835260016020526040832082845260016020526040842054905f1982019182116104115761038d610397926001926113b2565b50015430906114e9565b81835260016020526040832082845260016020526040842054905f198201918211610411576103d367ffffffffffffffff93926103df926113b2565b506001339101546114e9565b5116906040519182527f01c0212dd07f206dbea5fb1189f67e9462a37cbb045fe56a87098fe3ed5a60c260203393a380f35b634e487b7160e01b85526011600452602485fd5b634e487b7160e01b87526004879052602487fd5b634e487b7160e01b88526041600452602488fd5b634e487b7160e01b86526041600452602486fd5b61046e9194505f90611390565b5f925f610230565b6040513d5f823e3d90fd5b5f80fd5b9091506020813d6020116104b1575b816104a160209383611390565b810103126104815751905f6101ca565b3d9150610494565b60405162461bcd60e51b815260206004820152600f60248201527f416c726561647920656e746572656400000000000000000000000000000000006044820152606490fd5b60405162461bcd60e51b815260206004820152600e60248201527f526166666c652069732066756c6c0000000000000000000000000000000000006044820152606490fd5b60405162461bcd60e51b815260206004820152601260248201527f526166666c6520686173206578706972656400000000000000000000000000006044820152606490fd5b34610481575f3660031901126104815760206040516127118152f35b3461048157602036600319011261048157602060036105d06004356105cb5f5482106112ac565b6112f8565b500154604051908152f35b3461048157604036600319011261048157600435602435906105ff5f5482106112ac565b805f52600160205260405f205482101561065e5760609161062a915f52600160205260405f206113b2565b5060018101549067ffffffffffffffff60026001600160a01b03835416920154169060405192835260208301526040820152f35b60405162461bcd60e51b815260206004820152601360248201527f496e76616c696420656e74727920696e646578000000000000000000000000006044820152606490fd5b3461048157602036600319011261048157602060046105d081356105cb5f5482106112ac565b34610481576020366003190112610481576004356106e95f5482106112ac565b5f526001602052602060405f2054604051908152f35b346104815760c03660031901126104815760043567ffffffffffffffff81116104815761073090369060040161127e565b9060243567ffffffffffffffff81116104815761075190369060040161127e565b91906084359063ffffffff821682036104815760a43563ffffffff8116810361048157600263ffffffff841610610e065763ffffffff811615610dc15760443515610d7c5760643515610d37576040519461018086019386851067ffffffffffffffff861117610c3e5761082f63ffffffff948593610e1097604052606060208b0152606060408b01525f60608b01525f60808b01525f60a08b01525f60c08b01525f60e08b01525f6101008b01525f6101208b01525f6101408b01525f6101608b0152338a52610823368c8b6114a3565b60208b015236916114a3565b6040880152604435606088015260643560808801521660a0860152160263ffffffff8116908103610d23574201804211610d235767ffffffffffffffff1660c08301525f60e083015260016101008301525f61012083015267ffffffffffffffff42166101608301525f549168010000000000000000831015610c3e57600183015f556108bb836112f8565b610d10576001600160a01b03808351161673ffffffffffffffffffffffffffffffffffffffff1982541617815560018101602083015180519067ffffffffffffffff8211610c3e57819061090f84546113cb565b601f8111610cc0575b50602090601f8311600114610c5d575f92610c52575b50508160011b915f199060031b1c19161790555b604082015180519067ffffffffffffffff8211610c3e5761096660028401546113cb565b601f8111610bf6575b50602090601f8311600114610b595767ffffffffffffffff93837fddb9cef17a273606e480a6eca6185e369f275786aa4f5e7d862204c29ab9739d979694610160946006945f92610b4e575b50508160011b915f199060031b1c19161760028201555b60608401516003820155608084015160048201556005810163ffffffff60a0860151168154906bffffffffffffffff0000000060c088015160201b16916bffffffffffffffffffffffff191617178155610a5163ffffffff60e087015116829063ffffffff60601b82549160601b169063ffffffff60601b1916179055565b610100850151815461012087015171ffff000000000000000000000000000000001990911691151560801b70ff00000000000000000000000000000000169190911790151560881b71ff0000000000000000000000000000000000161790556101408401519101805492909301517fffffffff000000000000000000000000000000000000000000000000000000009092166001600160a01b03919091161760a082901b7bffffffffffffffff000000000000000000000000000000000000000016179091556040805181815290810187905292869060608501375f606087850101521660208201526060813395601f80199101168101030190a3005b015190508b806109bb565b90600284015f52805f20915f5b601f1985168110610bde5750936001846101609460069467ffffffffffffffff987fddb9cef17a273606e480a6eca6185e369f275786aa4f5e7d862204c29ab9739d9b9a98601f19811610610bc6575b505050811b0160028201556109d2565b01515f1960f88460031b161c191690558b8080610bb6565b91926020600181928685015181550194019201610b66565b600284015f5260205f20601f840160051c81019160208510610c34575b601f0160051c01905b818110610c29575061096f565b5f8155600101610c1c565b9091508190610c13565b634e487b7160e01b5f52604160045260245ffd5b01519050888061092e565b5f8581528281209350601f198516905b818110610ca85750908460019594939210610c90575b505050811b019055610942565b01515f1960f88460031b161c19169055888080610c83565b92936020600181928786015181550195019301610c6d565b909150835f5260205f20601f840160051c81019160208510610d06575b90601f859493920160051c01905b818110610cf85750610918565b5f8155849350600101610ceb565b9091508190610cdd565b634e487b7160e01b5f525f60045260245ffd5b634e487b7160e01b5f52601160045260245ffd5b60405162461bcd60e51b815260206004820152601a60248201527f456e74727920666565206d75737420626520706f7369746976650000000000006044820152606490fd5b60405162461bcd60e51b815260206004820152601d60248201527f5072697a6520616d6f756e74206d75737420626520706f7369746976650000006044820152606490fd5b60405162461bcd60e51b815260206004820152601960248201527f4475726174696f6e206d75737420626520706f736974697665000000000000006044820152606490fd5b60405162461bcd60e51b815260206004820152601e60248201527f4d617820656e7472696573206d757374206265206174206c65617374203200006044820152606490fd5b3461048157602036600319011261048157610e6e6004356105cb5f5482106112ac565b506001600160a01b03815416600382015467ffffffffffffffff600484015460ff6005860154600687015492610ee1610eb56002610eae60018c01611403565b9a01611403565b610ed36040519a8b9a8b5261018060208c01526101808b019061125a565b9089820360408b015261125a565b956060880152608087015263ffffffff811660a087015263ffffffff8160601c1660c0870152838160201c1660e0870152818160801c16151561010087015260881c1615156101208501526001600160a01b03811661014085015260a01c166101608301520390f35b3461048157602036600319011261048157600435610f6a5f5482106112ac565b610f73816112f8565b506001600160a01b0381541633036111985760058101908154610f9b60ff8260801c16611344565b67ffffffffffffffff8160201c1642106111535760881c60ff1661110e57825f52600160205260405f2054156110c957604051602081019042825244604082015284606082015260608152610ff1608082611390565b51902091835f52600160205260405f205480156110b55760066001600160a01b0361102c8196938294895f5260016020520660405f206113b2565b5054169301921673ffffffffffffffffffffffffffffffffffffffff198354161782557101000000000000000000000000000000000071ffff00000000000000000000000000000000198254161790555416907fa1f651abca781c059289c38ecf09d800439d1caf1f545c0d4b9a9bdc2aab80ea602060405167ffffffffffffffff42168152a3005b634e487b7160e01b5f52601260045260245ffd5b60405162461bcd60e51b815260206004820152600a60248201527f4e6f20656e7472696573000000000000000000000000000000000000000000006044820152606490fd5b60405162461bcd60e51b815260206004820152601460248201527f57696e6e657220616c726561647920647261776e0000000000000000000000006044820152606490fd5b60405162461bcd60e51b815260206004820152601660248201527f526166666c6520686173206e6f742065787069726564000000000000000000006044820152606490fd5b60405162461bcd60e51b815260206004820152601560248201527f4f6e6c792063726561746f722063616e206472617700000000000000000000006044820152606490fd5b34610481575f3660031901126104815760205f54604051908152f35b34610481576040366003190112610481576024356004356001600160a01b03821682036104815761122c5f5482106112ac565b5f5260026020526001600160a01b0360405f2091165f52602052602060ff60405f2054166040519015158152f35b805180835260209291819084018484015e5f828201840152601f01601f1916010190565b9181601f840112156104815782359167ffffffffffffffff8311610481576020838186019501011161048157565b156112b357565b60405162461bcd60e51b815260206004820152601160248201527f496e76616c696420726166666c652049440000000000000000000000000000006044820152606490fd5b5f54811015611330575f8080526007919091027f290decd9548b62a8d60345a988386fc84ba6bc95484008f6362f93160ef3e5630191565b634e487b7160e01b5f52603260045260245ffd5b1561134b57565b60405162461bcd60e51b815260206004820152601460248201527f526166666c65206973206e6f74206163746976650000000000000000000000006044820152606490fd5b90601f8019910116810190811067ffffffffffffffff821117610c3e57604052565b8054821015611330575f52600360205f20910201905f90565b90600182811c921680156113f9575b60208310146113e557565b634e487b7160e01b5f52602260045260245ffd5b91607f16916113da565b9060405191825f825492611416846113cb565b8084529360018116908115611481575060011461143d575b5061143b92500383611390565b565b90505f9291925260205f20905f915b81831061146557505090602061143b928201015f61142e565b602091935080600191548385890101520191019091849261144c565b90506020925061143b94915060ff191682840152151560051b8201015f61142e565b92919267ffffffffffffffff8211610c3e57604051916114cd601f8201601f191660200184611390565b829481845281830111610481578281602093845f960137010152565b6001600160a01b037f9e7b61f58c47dc699ac88507c4f5bb9f121c03808c5676a8078fe583e4649700541691823b1561048157604051635ca4b5b160e11b815260048101929092526001600160a01b03166024820152905f908290604490829084905af180156104765761155a5750565b5f61143b9161139056fea164736f6c634300081b000a9e7b61f58c47dc699ac88507c4f5bb9f121c03808c5676a8078fe583e46497039e7b61f58c47dc699ac88507c4f5bb9f121c03808c5676a8078fe583e46497019e7b61f58c47dc699ac88507c4f5bb9f121c03808c5676a8078fe583e46497029e7b61f58c47dc699ac88507c4f5bb9f121c03808c5676a8078fe583e4649700",
  "devdoc": {
    "details": "Entry amounts are stored as encrypted euint32 values",
    "kind": "dev",
    "methods": {
      "createRaffle(string,string,uint256,uint256,uint32,uint32)": {
        "params": {
          "description": "The description of the raffle",
          "durationHours": "Duration in hours until raffle expires",
          "entryFee": "Entry fee in wei (public)",
          "maxEntries": "Maximum number of entries allowed",
          "prizeAmount": "Prize amount in wei (public)",
          "title": "The title of the raffle"
        }
      },
      "drawWinner(uint256)": {
        "details": "This is a simplified version - in production, you'd use FHE comparison to find the entry with the highest amount. For MVP, we'll use a simple random selection.",
        "params": {
          "raffleId": "The ID of the raffle"
        }
      },
      "enterRaffle(uint256,bytes32,bytes)": {
        "details": "The encrypted entry amount must be >= the public entry fee",
        "params": {
          "encAmount": "Encrypted entry amount (external handle)",
          "inputProof": "The Zama input proof for encrypted amount",
          "raffleId": "The ID of the raffle to enter"
        }
      },
      "getEntry(uint256,uint256)": {
        "params": {
          "entryIndex": "The index of the entry",
          "raffleId": "The ID of the raffle"
        },
        "returns": {
          "createdAt": "Creation timestamp",
          "encAmount": "Encrypted entry amount",
          "participant": "Participant address"
        }
      },
      "getEntryCount(uint256)": {
        "params": {
          "raffleId": "The ID of the raffle"
        },
        "returns": {
          "count": "Number of entries"
        }
      },
      "getEntryFee(uint256)": {
        "params": {
          "raffleId": "The ID of the raffle"
        },
        "returns": {
          "entryFee": "Entry fee in wei"
        }
      },
      "getPrizeAmount(uint256)": {
        "params": {
          "raffleId": "The ID of the raffle"
        },
        "returns": {
          "prizeAmount": "Prize amount in wei"
        }
      },
      "getRaffleCount()": {
        "returns": {
          "count": "The total number of raffles"
        }
      },
      "getRaffleMeta(uint256)": {
        "params": {
          "raffleId": "The ID of the raffle"
        },
        "returns": {
          "createdAt": "Creation timestamp",
          "creator": "Creator address",
          "currentEntries": "Current number of entries",
          "description": "Description string",
          "entryFee": "Entry fee in wei",
          "expireAt": "Expiration timestamp",
          "isActive": "Whether the raffle is active",
          "isDrawn": "Whether the raffle has been drawn",
          "maxEntries": "Maximum entries allowed",
          "prizeAmount": "Prize amount in wei",
          "title": "Title string",
          "winner": "Winner address (if drawn)"
        }
      },
      "hasEntered(uint256,address)": {
        "params": {
          "participant": "The address to check",
          "raffleId": "The ID of the raffle"
        },
        "returns": {
          "_0": "Whether the address has entered"
        }
      }
    },
    "title": "FHERaffle - Encrypted Raffle System with FHE",
    "version": 1
  },
  "userdoc": {
    "kind": "user",
    "methods": {
      "createRaffle(string,string,uint256,uint256,uint32,uint32)": {
        "notice": "Create a new raffle"
      },
      "drawWinner(uint256)": {
        "notice": "Draw the winner (only creator can call, after expiration)"
      },
      "enterRaffle(uint256,bytes32,bytes)": {
        "notice": "Enter a raffle with an encrypted amount"
      },
      "getEntry(uint256,uint256)": {
        "notice": "Get encrypted entry amount for a specific entry"
      },
      "getEntryCount(uint256)": {
        "notice": "Get the number of entries for a raffle"
      },
      "getEntryFee(uint256)": {
        "notice": "Get entry fee for a raffle (public)"
      },
      "getPrizeAmount(uint256)": {
        "notice": "Get prize amount for a raffle (public)"
      },
      "getRaffleCount()": {
        "notice": "Get the total number of raffles"
      },
      "getRaffleMeta(uint256)": {
        "notice": "Get raffle metadata"
      },
      "hasEntered(uint256,address)": {
        "notice": "Check if an address has entered a raffle"
      }
    },
    "notice": "A raffle system where entry amounts are encrypted using FHE until the draw",
    "version": 1
  },
  "storageLayout": {
    "storage": [
      {
        "astId": 39180,
        "contract": "contracts/FHERaffle.sol:FHERaffle",
        "label": "_raffles",
        "offset": 0,
        "slot": "0",
        "type": "t_array(t_struct(Raffle)39168_storage)dyn_storage"
      },
      {
        "astId": 39186,
        "contract": "contracts/FHERaffle.sol:FHERaffle",
        "label": "_entries",
        "offset": 0,
        "slot": "1",
        "type": "t_mapping(t_uint256,t_array(t_struct(Entry)39176_storage)dyn_storage)"
      },
      {
        "astId": 39192,
        "contract": "contracts/FHERaffle.sol:FHERaffle",
        "label": "_hasEntered",
        "offset": 0,
        "slot": "2",
        "type": "t_mapping(t_uint256,t_mapping(t_address,t_bool))"
      }
    ],
    "types": {
      "t_address": {
        "encoding": "inplace",
        "label": "address",
        "numberOfBytes": "20"
      },
      "t_array(t_struct(Entry)39176_storage)dyn_storage": {
        "base": "t_struct(Entry)39176_storage",
        "encoding": "dynamic_array",
        "label": "struct FHERaffle.Entry[]",
        "numberOfBytes": "32"
      },
      "t_array(t_struct(Raffle)39168_storage)dyn_storage": {
        "base": "t_struct(Raffle)39168_storage",
        "encoding": "dynamic_array",
        "label": "struct FHERaffle.Raffle[]",
        "numberOfBytes": "32"
      },
      "t_bool": {
        "encoding": "inplace",
        "label": "bool",
        "numberOfBytes": "1"
      },
      "t_mapping(t_address,t_bool)": {
        "encoding": "mapping",
        "key": "t_address",
        "label": "mapping(address => bool)",
        "numberOfBytes": "32",
        "value": "t_bool"
      },
      "t_mapping(t_uint256,t_array(t_struct(Entry)39176_storage)dyn_storage)": {
        "encoding": "mapping",
        "key": "t_uint256",
        "label": "mapping(uint256 => struct FHERaffle.Entry[])",
        "numberOfBytes": "32",
        "value": "t_array(t_struct(Entry)39176_storage)dyn_storage"
      },
      "t_mapping(t_uint256,t_mapping(t_address,t_bool))": {
        "encoding": "mapping",
        "key": "t_uint256",
        "label": "mapping(uint256 => mapping(address => bool))",
        "numberOfBytes": "32",
        "value": "t_mapping(t_address,t_bool)"
      },
      "t_string_storage": {
        "encoding": "bytes",
        "label": "string",
        "numberOfBytes": "32"
      },
      "t_struct(Entry)39176_storage": {
        "encoding": "inplace",
        "label": "struct FHERaffle.Entry",
        "members": [
          {
            "astId": 39170,
            "contract": "contracts/FHERaffle.sol:FHERaffle",
            "label": "participant",
            "offset": 0,
            "slot": "0",
            "type": "t_address"
          },
          {
            "astId": 39173,
            "contract": "contracts/FHERaffle.sol:FHERaffle",
            "label": "amount",
            "offset": 0,
            "slot": "1",
            "type": "t_userDefinedValueType(euint32)39883"
          },
          {
            "astId": 39175,
            "contract": "contracts/FHERaffle.sol:FHERaffle",
            "label": "createdAt",
            "offset": 0,
            "slot": "2",
            "type": "t_uint64"
          }
        ],
        "numberOfBytes": "96"
      },
      "t_struct(Raffle)39168_storage": {
        "encoding": "inplace",
        "label": "struct FHERaffle.Raffle",
        "members": [
          {
            "astId": 39145,
            "contract": "contracts/FHERaffle.sol:FHERaffle",
            "label": "creator",
            "offset": 0,
            "slot": "0",
            "type": "t_address"
          },
          {
            "astId": 39147,
            "contract": "contracts/FHERaffle.sol:FHERaffle",
            "label": "title",
            "offset": 0,
            "slot": "1",
            "type": "t_string_storage"
          },
          {
            "astId": 39149,
            "contract": "contracts/FHERaffle.sol:FHERaffle",
            "label": "description",
            "offset": 0,
            "slot": "2",
            "type": "t_string_storage"
          },
          {
            "astId": 39151,
            "contract": "contracts/FHERaffle.sol:FHERaffle",
            "label": "prizeAmount",
            "offset": 0,
            "slot": "3",
            "type": "t_uint256"
          },
          {
            "astId": 39153,
            "contract": "contracts/FHERaffle.sol:FHERaffle",
            "label": "entryFee",
            "offset": 0,
            "slot": "4",
            "type": "t_uint256"
          },
          {
            "astId": 39155,
            "contract": "contracts/FHERaffle.sol:FHERaffle",
            "label": "maxEntries",
            "offset": 0,
            "slot": "5",
            "type": "t_uint32"
          },
          {
            "astId": 39157,
            "contract": "contracts/FHERaffle.sol:FHERaffle",
            "label": "expireAt",
            "offset": 4,
            "slot": "5",
            "type": "t_uint64"
          },
          {
            "astId": 39159,
            "contract": "contracts/FHERaffle.sol:FHERaffle",
            "label": "currentEntries",
            "offset": 12,
            "slot": "5",
            "type": "t_uint32"
          },
          {
            "astId": 39161,
            "contract": "contracts/FHERaffle.sol:FHERaffle",
            "label": "isActive",
            "offset": 16,
            "slot": "5",
            "type": "t_bool"
          },
          {
            "astId": 39163,
            "contract": "contracts/FHERaffle.sol:FHERaffle",
            "label": "isDrawn",
            "offset": 17,
            "slot": "5",
            "type": "t_bool"
          },
          {
            "astId": 39165,
            "contract": "contracts/FHERaffle.sol:FHERaffle",
            "label": "winner",
            "offset": 0,
            "slot": "6",
            "type": "t_address"
          },
          {
            "astId": 39167,
            "contract": "contracts/FHERaffle.sol:FHERaffle",
            "label": "createdAt",
            "offset": 20,
            "slot": "6",
            "type": "t_uint64"
          }
        ],
        "numberOfBytes": "224"
      },
      "t_uint256": {
        "encoding": "inplace",
        "label": "uint256",
        "numberOfBytes": "32"
      },
      "t_uint32": {
        "encoding": "inplace",
        "label": "uint32",
        "numberOfBytes": "4"
      },
      "t_uint64": {
        "encoding": "inplace",
        "label": "uint64",
        "numberOfBytes": "8"
      },
      "t_userDefinedValueType(euint32)39883": {
        "encoding": "inplace",
        "label": "euint32",
        "numberOfBytes": "32"
      }
    }
  }
}